{
  "contractName": "DecentraDocuSign",
  "abi": [
    {
      "inputs": [
        {
          "internalType": "string",
          "name": "_path",
          "type": "string"
        },
        {
          "internalType": "address[]",
          "name": "_signers",
          "type": "address[]"
        }
      ],
      "payable": true,
      "stateMutability": "payable",
      "type": "constructor"
    },
    {
      "anonymous": false,
      "inputs": [
        {
          "indexed": false,
          "internalType": "string",
          "name": "path",
          "type": "string"
        }
      ],
      "name": "DocumentAdded",
      "type": "event"
    },
    {
      "anonymous": false,
      "inputs": [
        {
          "indexed": false,
          "internalType": "string",
          "name": "path",
          "type": "string"
        },
        {
          "indexed": false,
          "internalType": "address",
          "name": "peformed_by",
          "type": "address"
        }
      ],
      "name": "DocumentApproved",
      "type": "event"
    },
    {
      "anonymous": false,
      "inputs": [
        {
          "indexed": false,
          "internalType": "string",
          "name": "path",
          "type": "string"
        }
      ],
      "name": "DocumentCompleted",
      "type": "event"
    },
    {
      "anonymous": false,
      "inputs": [
        {
          "indexed": false,
          "internalType": "string",
          "name": "path",
          "type": "string"
        },
        {
          "indexed": false,
          "internalType": "address",
          "name": "peformed_by",
          "type": "address"
        }
      ],
      "name": "DocumentDeclined",
      "type": "event"
    },
    {
      "constant": true,
      "inputs": [],
      "name": "completed",
      "outputs": [
        {
          "internalType": "bool",
          "name": "",
          "type": "bool"
        }
      ],
      "payable": false,
      "stateMutability": "view",
      "type": "function"
    },
    {
      "constant": true,
      "inputs": [],
      "name": "document",
      "outputs": [
        {
          "internalType": "string",
          "name": "path",
          "type": "string"
        }
      ],
      "payable": false,
      "stateMutability": "view",
      "type": "function"
    },
    {
      "constant": true,
      "inputs": [],
      "name": "owner",
      "outputs": [
        {
          "internalType": "address",
          "name": "",
          "type": "address"
        }
      ],
      "payable": false,
      "stateMutability": "view",
      "type": "function"
    },
    {
      "constant": true,
      "inputs": [],
      "name": "signatureCount",
      "outputs": [
        {
          "internalType": "uint256",
          "name": "",
          "type": "uint256"
        }
      ],
      "payable": false,
      "stateMutability": "view",
      "type": "function"
    },
    {
      "constant": true,
      "inputs": [
        {
          "internalType": "address",
          "name": "",
          "type": "address"
        }
      ],
      "name": "signatures",
      "outputs": [
        {
          "internalType": "address",
          "name": "owner",
          "type": "address"
        },
        {
          "internalType": "enum DecentraDocuSign.Status",
          "name": "status",
          "type": "uint8"
        },
        {
          "internalType": "bool",
          "name": "exists",
          "type": "bool"
        }
      ],
      "payable": false,
      "stateMutability": "view",
      "type": "function"
    },
    {
      "constant": true,
      "inputs": [
        {
          "internalType": "uint256",
          "name": "",
          "type": "uint256"
        }
      ],
      "name": "signers",
      "outputs": [
        {
          "internalType": "address",
          "name": "",
          "type": "address"
        }
      ],
      "payable": false,
      "stateMutability": "view",
      "type": "function"
    },
    {
      "constant": true,
      "inputs": [],
      "name": "signersCount",
      "outputs": [
        {
          "internalType": "uint256",
          "name": "",
          "type": "uint256"
        }
      ],
      "payable": false,
      "stateMutability": "view",
      "type": "function"
    },
    {
      "constant": true,
      "inputs": [],
      "name": "supportAddress",
      "outputs": [
        {
          "internalType": "address payable",
          "name": "",
          "type": "address"
        }
      ],
      "payable": false,
      "stateMutability": "view",
      "type": "function"
    },
    {
      "constant": false,
      "inputs": [],
      "name": "approve",
      "outputs": [],
      "payable": false,
      "stateMutability": "nonpayable",
      "type": "function"
    },
    {
      "constant": false,
      "inputs": [],
      "name": "decline",
      "outputs": [],
      "payable": false,
      "stateMutability": "nonpayable",
      "type": "function"
    },
    {
      "constant": false,
      "inputs": [
        {
          "internalType": "address",
          "name": "_new_signer_addr",
          "type": "address"
        }
      ],
      "name": "addSigner",
      "outputs": [],
      "payable": false,
      "stateMutability": "nonpayable",
      "type": "function"
    },
    {
      "constant": false,
      "inputs": [
        {
          "internalType": "address",
          "name": "_addr_to_remove",
          "type": "address"
        }
      ],
      "name": "removeSigner",
      "outputs": [],
      "payable": false,
      "stateMutability": "nonpayable",
      "type": "function"
    }
  ],
  "bytecode": "0x60806040527390f8bf6a479f320ead074411a4b0e7944ea8c9c1600160006101000a81548173ffffffffffffffffffffffffffffffffffffffff021916908373ffffffffffffffffffffffffffffffffffffffff160217905550600060025560006003556000600460006101000a81548160ff021916908315150217905550604051620016553803806200165583398181016040526040811015620000a357600080fd5b8101908080516040519392919084640100000000821115620000c457600080fd5b83820191506020820185811115620000db57600080fd5b8251866001820283011164010000000082111715620000f957600080fd5b8083526020830192505050908051906020019080838360005b838110156200012f57808201518184015260208101905062000112565b50505050905090810190601f1680156200015d5780820380516001836020036101000a031916815260200191505b50604052602001805160405193929190846401000000008211156200018157600080fd5b838201915060208201858111156200019857600080fd5b8251866020820283011164010000000082111715620001b657600080fd5b8083526020830192505050908051906020019060200280838360005b83811015620001ef578082015181840152602081019050620001d2565b50505050905001604052505050336000806101000a81548173ffffffffffffffffffffffffffffffffffffffff021916908373ffffffffffffffffffffffffffffffffffffffff160217905550600160009054906101000a900473ffffffffffffffffffffffffffffffffffffffff1673ffffffffffffffffffffffffffffffffffffffff166108fc349081150290604051600060405180830381858888f19350505050158015620002a5573d6000803e3d6000fd5b5060405180602001604052808381525060056000820151816000019080519060200190620002d5929190620004fc565b5090505060008090505b8151811015620004335760405180606001604052808383815181106200030157fe5b602002602001015173ffffffffffffffffffffffffffffffffffffffff168152602001600060028111156200033257fe5b815260200160011515815250600660008484815181106200034f57fe5b602002602001015173ffffffffffffffffffffffffffffffffffffffff1673ffffffffffffffffffffffffffffffffffffffff16815260200190815260200160002060008201518160000160006101000a81548173ffffffffffffffffffffffffffffffffffffffff021916908373ffffffffffffffffffffffffffffffffffffffff16021790555060208201518160000160146101000a81548160ff02191690836002811115620003fd57fe5b021790555060408201518160000160156101000a81548160ff0219169083151502179055509050508080600101915050620002df565b50805160028190555080600790805190602001906200045492919062000583565b507f10139f827a9aa59dba6be467ace4fb3b388d30087e3cfd9b014ff81ce11ac2c2826040518080602001828103825283818151815260200191508051906020019080838360005b83811015620004b95780820151818401526020810190506200049c565b50505050905090810190601f168015620004e75780820380516001836020036101000a031916815260200191505b509250505060405180910390a1505062000680565b828054600181600116156101000203166002900490600052602060002090601f016020900481019282601f106200053f57805160ff191683800117855562000570565b8280016001018555821562000570579182015b828111156200056f57825182559160200191906001019062000552565b5b5090506200057f919062000612565b5090565b828054828255906000526020600020908101928215620005ff579160200282015b82811115620005fe5782518260006101000a81548173ffffffffffffffffffffffffffffffffffffffff021916908373ffffffffffffffffffffffffffffffffffffffff16021790555091602001919060010190620005a4565b5b5090506200060e91906200063a565b5090565b6200063791905b808211156200063357600081600090555060010162000619565b5090565b90565b6200067d91905b808211156200067957600081816101000a81549073ffffffffffffffffffffffffffffffffffffffff02191690555060010162000641565b5090565b90565b610fc580620006906000396000f3fe608060405234801561001057600080fd5b50600436106100b45760003560e01c80639d9a7fe9116100715780639d9a7fe91461028c578063ab040107146102ae578063c792f36d146102b8578063e40956b11461035c578063e7f55ed61461037a578063eb12d61e14610398576100b4565b80630e316ab7146100b95780630f6d37d6146100fd57806312424e3f146101475780631f4339d8146101515780632079fb9a146101d45780638da5cb5b14610242575b600080fd5b6100fb600480360360208110156100cf57600080fd5b81019080803573ffffffffffffffffffffffffffffffffffffffff1690602001909291905050506103dc565b005b610105610678565b604051808273ffffffffffffffffffffffffffffffffffffffff1673ffffffffffffffffffffffffffffffffffffffff16815260200191505060405180910390f35b61014f61069e565b005b6101596108b3565b6040518080602001828103825283818151815260200191508051906020019080838360005b8381101561019957808201518184015260208101905061017e565b50505050905090810190601f1680156101c65780820380516001836020036101000a031916815260200191505b509250505060405180910390f35b610200600480360360208110156101ea57600080fd5b8101908080359060200190929190505050610957565b604051808273ffffffffffffffffffffffffffffffffffffffff1673ffffffffffffffffffffffffffffffffffffffff16815260200191505060405180910390f35b61024a610993565b604051808273ffffffffffffffffffffffffffffffffffffffff1673ffffffffffffffffffffffffffffffffffffffff16815260200191505060405180910390f35b6102946109b8565b604051808215151515815260200191505060405180910390f35b6102b66109cb565b005b6102fa600480360360208110156102ce57600080fd5b81019080803573ffffffffffffffffffffffffffffffffffffffff169060200190929190505050610be0565b604051808473ffffffffffffffffffffffffffffffffffffffff1673ffffffffffffffffffffffffffffffffffffffff16815260200183600281111561033c57fe5b60ff16815260200182151515158152602001935050505060405180910390f35b610364610c44565b6040518082815260200191505060405180910390f35b610382610c4a565b6040518082815260200191505060405180910390f35b6103da600480360360208110156103ae57600080fd5b81019080803573ffffffffffffffffffffffffffffffffffffffff169060200190929190505050610c50565b005b3373ffffffffffffffffffffffffffffffffffffffff166000809054906101000a900473ffffffffffffffffffffffffffffffffffffffff1673ffffffffffffffffffffffffffffffffffffffff1614610481576040517f08c379a0000000000000000000000000000000000000000000000000000000008152600401808060200182810382526022815260200180610f316022913960400191505060405180910390fd5b600660008273ffffffffffffffffffffffffffffffffffffffff1673ffffffffffffffffffffffffffffffffffffffff16815260200190815260200160002060000160159054906101000a900460ff16610526576040517f08c379a0000000000000000000000000000000000000000000000000000000008152600401808060200182810382526027815260200180610f0a6027913960400191505060405180910390fd5b6000600281111561053357fe5b600660008373ffffffffffffffffffffffffffffffffffffffff1673ffffffffffffffffffffffffffffffffffffffff16815260200190815260200160002060000160149054906101000a900460ff16600281111561058e57fe5b146105e4576040517f08c379a000000000000000000000000000000000000000000000000000000000815260040180806020018281038252603c815260200180610ece603c913960400191505060405180910390fd5b600660008273ffffffffffffffffffffffffffffffffffffffff1673ffffffffffffffffffffffffffffffffffffffff168152602001908152602001600020600080820160006101000a81549073ffffffffffffffffffffffffffffffffffffffff02191690556000820160146101000a81549060ff02191690556000820160156101000a81549060ff0219169055505050565b600160009054906101000a900473ffffffffffffffffffffffffffffffffffffffff1681565b600060028111156106ab57fe5b600660003373ffffffffffffffffffffffffffffffffffffffff1673ffffffffffffffffffffffffffffffffffffffff16815260200190815260200160002060000160149054906101000a900460ff16600281111561070657fe5b1461075c576040517f08c379a000000000000000000000000000000000000000000000000000000000815260040180806020018281038252603e815260200180610f53603e913960400191505060405180910390fd5b6001600660003373ffffffffffffffffffffffffffffffffffffffff1673ffffffffffffffffffffffffffffffffffffffff16815260200190815260200160002060000160146101000a81548160ff021916908360028111156107bb57fe5b021790555060016003540160038190555060025460035414156108b1576001600460006101000a81548160ff0219169083151502179055507f7e5a9a02ca6a02eba87c132afc55547e8b3844922601659c1167b1281d6061bf600560000160405180806020018281038252838181546001816001161561010002031660029004815260200191508054600181600116156101000203166002900480156108a25780601f10610877576101008083540402835291602001916108a2565b820191906000526020600020905b81548152906001019060200180831161088557829003601f168201915b50509250505060405180910390a15b565b6005806000018054600181600116156101000203166002900480601f01602080910402602001604051908101604052809291908181526020018280546001816001161561010002031660029004801561094d5780601f106109225761010080835404028352916020019161094d565b820191906000526020600020905b81548152906001019060200180831161093057829003601f168201915b5050505050905081565b6007818154811061096457fe5b906000526020600020016000915054906101000a900473ffffffffffffffffffffffffffffffffffffffff1681565b6000809054906101000a900473ffffffffffffffffffffffffffffffffffffffff1681565b600460009054906101000a900460ff1681565b600060028111156109d857fe5b600660003373ffffffffffffffffffffffffffffffffffffffff1673ffffffffffffffffffffffffffffffffffffffff16815260200190815260200160002060000160149054906101000a900460ff166002811115610a3357fe5b14610a89576040517f08c379a000000000000000000000000000000000000000000000000000000000815260040180806020018281038252603e815260200180610f53603e913960400191505060405180910390fd5b6002600660003373ffffffffffffffffffffffffffffffffffffffff1673ffffffffffffffffffffffffffffffffffffffff16815260200190815260200160002060000160146101000a81548160ff02191690836002811115610ae857fe5b02179055506001600354016003819055506002546003541415610bde576001600460006101000a81548160ff0219169083151502179055507f7e5a9a02ca6a02eba87c132afc55547e8b3844922601659c1167b1281d6061bf60056000016040518080602001828103825283818154600181600116156101000203166002900481526020019150805460018160011615610100020316600290048015610bcf5780601f10610ba457610100808354040283529160200191610bcf565b820191906000526020600020905b815481529060010190602001808311610bb257829003601f168201915b50509250505060405180910390a15b565b60066020528060005260406000206000915090508060000160009054906101000a900473ffffffffffffffffffffffffffffffffffffffff16908060000160149054906101000a900460ff16908060000160159054906101000a900460ff16905083565b60025481565b60035481565b3373ffffffffffffffffffffffffffffffffffffffff166000809054906101000a900473ffffffffffffffffffffffffffffffffffffffff1673ffffffffffffffffffffffffffffffffffffffff1614610cf5576040517f08c379a0000000000000000000000000000000000000000000000000000000008152600401808060200182810382526022815260200180610f316022913960400191505060405180910390fd5b600660008273ffffffffffffffffffffffffffffffffffffffff1673ffffffffffffffffffffffffffffffffffffffff16815260200190815260200160002060000160159054906101000a900460ff1615610db8576040517f08c379a000000000000000000000000000000000000000000000000000000000815260040180806020018281038252601a8152602001807f5061727469636970616e7420616c72656164792065786973747300000000000081525060200191505060405180910390fd5b60405180606001604052808273ffffffffffffffffffffffffffffffffffffffff16815260200160006002811115610dec57fe5b815260200160011515815250600660008373ffffffffffffffffffffffffffffffffffffffff1673ffffffffffffffffffffffffffffffffffffffff16815260200190815260200160002060008201518160000160006101000a81548173ffffffffffffffffffffffffffffffffffffffff021916908373ffffffffffffffffffffffffffffffffffffffff16021790555060208201518160000160146101000a81548160ff02191690836002811115610ea257fe5b021790555060408201518160000160156101000a81548160ff0219169083151502179055509050505056fe4e6f7420616c6c6f77656420746f2072656d6f766520616464726573732e20557365722068617320616c72656164792070617274696369706174656441646472657373206d75737420626520657869737420696e207369676e6174757265206c6973744f6e6c79206f776e65722063616e20706572666f726d207468697320616374696f6e596f7520617265206e6f7420656c696769626c65206f7220796f75206861766520616c726561647920706572666f726d6564207468697320616374696f6ea265627a7a72315820951e3c33354e50116d9ae15a52e70596153e1f1a2ab1a54f8f05419535d51ef564736f6c63430005100032",
  "source": "// SPDX-License-Identifier: MIT\n\npragma solidity 0.5.16;\n\ncontract DecentraDocuSign {\n    address public owner;\n    address payable public supportAddress = 0x90F8bf6A479f320ead074411a4B0e7944Ea8c9C1;\n    uint public signersCount =0;\n    uint public signatureCount =0;\n    bool public completed = false;\n    \n    enum Status {\n        PENDING,\n        APPROVED,\n        DECLINED\n    }\n    \n    struct Signature {\n        address owner;\n        Status status;\n        bool exists;\n    }\n    \n    struct Document {\n        string path;\n    }\n    \n    Document public document;\n    mapping(address=>Signature) public signatures;\n    address[] public signers;\n    \n    modifier isOwner {\n        require(owner==msg.sender, \"Only owner can perform this action\");\n        _;\n    }\n    \n    event DocumentAdded(string path);\n    event DocumentCompleted(string path);\n    event DocumentApproved(string path, address peformed_by);\n    event DocumentDeclined(string path, address peformed_by);\n     \n    constructor(string memory _path, address[] memory _signers) payable public {\n        owner = msg.sender;\n        supportAddress.transfer(msg.value);\n        document = Document({path:_path});\n        for(uint i=0; i<_signers.length; i++) {\n            signatures[_signers[i]] = Signature({owner: _signers[i], status: Status.PENDING, exists: true});\n        }\n        signersCount = _signers.length;\n        signers = _signers;\n        emit DocumentAdded(_path);\n    }\n    \n    function approve() public {\n        require(signatures[msg.sender].status == Status.PENDING, \"You are not eligible or you have already performed this action\");\n        signatures[msg.sender].status = Status.APPROVED;\n        signatureCount = signatureCount + 1;\n        if (signatureCount == signersCount) {\n            completed = true;\n            emit DocumentCompleted(document.path);\n        }\n        \n    }\n    \n    function decline() public {\n        require(signatures[msg.sender].status == Status.PENDING, \"You are not eligible or you have already performed this action\");\n        signatures[msg.sender].status = Status.DECLINED;\n        signatureCount = signatureCount + 1;\n        if (signatureCount == signersCount) {\n            completed = true;\n            emit DocumentCompleted(document.path);\n        }\n    }\n    \n    function addSigner(address _new_signer_addr) public isOwner {\n        require(!signatures[_new_signer_addr].exists, \"Participant already exists\");\n        signatures[_new_signer_addr] = Signature({owner:_new_signer_addr,status: Status.PENDING, exists: true}); \n    }\n    \n    function removeSigner(address _addr_to_remove) public isOwner {\n        require(signatures[_addr_to_remove].exists, \"Address must be exist in signature list\");\n        require(signatures[_addr_to_remove].status == Status.PENDING, \"Not allowed to remove address. User has already participated\");\n        delete signatures[_addr_to_remove];\n    }\n}",
  "sourcePath": "/home/felix/Projects/freelance/upwork/ewarrant/contracts/DecentraDocuSign.sol",
  "compiler": {
    "name": "solc",
    "version": "0.5.16+commit.9c3226ce.Emscripten.clang"
  },
  "schemaVersion": "3.3.2",
  "updatedAt": "2020-12-02T12:17:56.734Z",
  "devdoc": {
    "methods": {}
  },
  "userdoc": {
    "methods": {}
  }
}