{
  "contractName": "DecentraDocuSign",
  "abi": [
    {
      "inputs": [
        {
          "internalType": "string",
          "name": "_path",
          "type": "string"
        },
        {
          "internalType": "address[]",
          "name": "_signers",
          "type": "address[]"
        }
      ],
      "payable": true,
      "stateMutability": "payable",
      "type": "constructor"
    },
    {
      "anonymous": false,
      "inputs": [
        {
          "indexed": false,
          "internalType": "string",
          "name": "path",
          "type": "string"
        }
      ],
      "name": "DocumentAdded",
      "type": "event"
    },
    {
      "anonymous": false,
      "inputs": [
        {
          "indexed": false,
          "internalType": "string",
          "name": "path",
          "type": "string"
        },
        {
          "indexed": false,
          "internalType": "address",
          "name": "peformed_by",
          "type": "address"
        }
      ],
      "name": "DocumentApproved",
      "type": "event"
    },
    {
      "anonymous": false,
      "inputs": [
        {
          "indexed": false,
          "internalType": "string",
          "name": "path",
          "type": "string"
        }
      ],
      "name": "DocumentCompleted",
      "type": "event"
    },
    {
      "anonymous": false,
      "inputs": [
        {
          "indexed": false,
          "internalType": "string",
          "name": "path",
          "type": "string"
        },
        {
          "indexed": false,
          "internalType": "address",
          "name": "peformed_by",
          "type": "address"
        }
      ],
      "name": "DocumentDeclined",
      "type": "event"
    },
    {
      "constant": true,
      "inputs": [],
      "name": "completed",
      "outputs": [
        {
          "internalType": "bool",
          "name": "",
          "type": "bool"
        }
      ],
      "payable": false,
      "stateMutability": "view",
      "type": "function"
    },
    {
      "constant": true,
      "inputs": [],
      "name": "document",
      "outputs": [
        {
          "internalType": "string",
          "name": "path",
          "type": "string"
        }
      ],
      "payable": false,
      "stateMutability": "view",
      "type": "function"
    },
    {
      "constant": true,
      "inputs": [],
      "name": "owner",
      "outputs": [
        {
          "internalType": "address",
          "name": "",
          "type": "address"
        }
      ],
      "payable": false,
      "stateMutability": "view",
      "type": "function"
    },
    {
      "constant": true,
      "inputs": [],
      "name": "signatureCount",
      "outputs": [
        {
          "internalType": "uint256",
          "name": "",
          "type": "uint256"
        }
      ],
      "payable": false,
      "stateMutability": "view",
      "type": "function"
    },
    {
      "constant": true,
      "inputs": [
        {
          "internalType": "address",
          "name": "",
          "type": "address"
        }
      ],
      "name": "signatures",
      "outputs": [
        {
          "internalType": "address",
          "name": "owner",
          "type": "address"
        },
        {
          "internalType": "enum DecentraDocuSign.Status",
          "name": "status",
          "type": "uint8"
        },
        {
          "internalType": "bool",
          "name": "exists",
          "type": "bool"
        }
      ],
      "payable": false,
      "stateMutability": "view",
      "type": "function"
    },
    {
      "constant": true,
      "inputs": [
        {
          "internalType": "uint256",
          "name": "",
          "type": "uint256"
        }
      ],
      "name": "signers",
      "outputs": [
        {
          "internalType": "address",
          "name": "",
          "type": "address"
        }
      ],
      "payable": false,
      "stateMutability": "view",
      "type": "function"
    },
    {
      "constant": true,
      "inputs": [],
      "name": "signersCount",
      "outputs": [
        {
          "internalType": "uint256",
          "name": "",
          "type": "uint256"
        }
      ],
      "payable": false,
      "stateMutability": "view",
      "type": "function"
    },
    {
      "constant": false,
      "inputs": [],
      "name": "approve",
      "outputs": [],
      "payable": false,
      "stateMutability": "nonpayable",
      "type": "function"
    },
    {
      "constant": false,
      "inputs": [],
      "name": "decline",
      "outputs": [],
      "payable": false,
      "stateMutability": "nonpayable",
      "type": "function"
    },
    {
      "constant": false,
      "inputs": [
        {
          "internalType": "address",
          "name": "_new_signer_addr",
          "type": "address"
        }
      ],
      "name": "addSigner",
      "outputs": [],
      "payable": false,
      "stateMutability": "nonpayable",
      "type": "function"
    },
    {
      "constant": false,
      "inputs": [
        {
          "internalType": "address",
          "name": "_addr_to_remove",
          "type": "address"
        }
      ],
      "name": "removeSigner",
      "outputs": [],
      "payable": false,
      "stateMutability": "nonpayable",
      "type": "function"
    }
  ],
  "bytecode": "0x6080604052600060015560006002556000600360006101000a81548160ff0219169083151502179055506040516200151b3803806200151b833981810160405260408110156200004e57600080fd5b81019080805160405193929190846401000000008211156200006f57600080fd5b838201915060208201858111156200008657600080fd5b8251866001820283011164010000000082111715620000a457600080fd5b8083526020830192505050908051906020019080838360005b83811015620000da578082015181840152602081019050620000bd565b50505050905090810190601f168015620001085780820380516001836020036101000a031916815260200191505b50604052602001805160405193929190846401000000008211156200012c57600080fd5b838201915060208201858111156200014357600080fd5b82518660208202830111640100000000821117156200016157600080fd5b8083526020830192505050908051906020019060200280838360005b838110156200019a5780820151818401526020810190506200017d565b50505050905001604052505050336000806101000a81548173ffffffffffffffffffffffffffffffffffffffff021916908373ffffffffffffffffffffffffffffffffffffffff16021790555060405180602001604052808381525060046000820151816000019080519060200190620002169291906200043d565b5090505060008090505b8151811015620003745760405180606001604052808383815181106200024257fe5b602002602001015173ffffffffffffffffffffffffffffffffffffffff168152602001600060028111156200027357fe5b815260200160011515815250600560008484815181106200029057fe5b602002602001015173ffffffffffffffffffffffffffffffffffffffff1673ffffffffffffffffffffffffffffffffffffffff16815260200190815260200160002060008201518160000160006101000a81548173ffffffffffffffffffffffffffffffffffffffff021916908373ffffffffffffffffffffffffffffffffffffffff16021790555060208201518160000160146101000a81548160ff021916908360028111156200033e57fe5b021790555060408201518160000160156101000a81548160ff021916908315150217905550905050808060010191505062000220565b508051600181905550806006908051906020019062000395929190620004c4565b507f10139f827a9aa59dba6be467ace4fb3b388d30087e3cfd9b014ff81ce11ac2c2826040518080602001828103825283818151815260200191508051906020019080838360005b83811015620003fa578082015181840152602081019050620003dd565b50505050905090810190601f168015620004285780820380516001836020036101000a031916815260200191505b509250505060405180910390a15050620005c1565b828054600181600116156101000203166002900490600052602060002090601f016020900481019282601f106200048057805160ff1916838001178555620004b1565b82800160010185558215620004b1579182015b82811115620004b057825182559160200191906001019062000493565b5b509050620004c0919062000553565b5090565b82805482825590600052602060002090810192821562000540579160200282015b828111156200053f5782518260006101000a81548173ffffffffffffffffffffffffffffffffffffffff021916908373ffffffffffffffffffffffffffffffffffffffff16021790555091602001919060010190620004e5565b5b5090506200054f91906200057b565b5090565b6200057891905b80821115620005745760008160009055506001016200055a565b5090565b90565b620005be91905b80821115620005ba57600081816101000a81549073ffffffffffffffffffffffffffffffffffffffff02191690555060010162000582565b5090565b90565b610f4a80620005d16000396000f3fe608060405234801561001057600080fd5b50600436106100a95760003560e01c80639d9a7fe9116100715780639d9a7fe914610237578063ab04010714610259578063c792f36d14610263578063e40956b114610307578063e7f55ed614610325578063eb12d61e14610343576100a9565b80630e316ab7146100ae57806312424e3f146100f25780631f4339d8146100fc5780632079fb9a1461017f5780638da5cb5b146101ed575b600080fd5b6100f0600480360360208110156100c457600080fd5b81019080803573ffffffffffffffffffffffffffffffffffffffff169060200190929190505050610387565b005b6100fa610623565b005b610104610838565b6040518080602001828103825283818151815260200191508051906020019080838360005b83811015610144578082015181840152602081019050610129565b50505050905090810190601f1680156101715780820380516001836020036101000a031916815260200191505b509250505060405180910390f35b6101ab6004803603602081101561019557600080fd5b81019080803590602001909291905050506108dc565b604051808273ffffffffffffffffffffffffffffffffffffffff1673ffffffffffffffffffffffffffffffffffffffff16815260200191505060405180910390f35b6101f5610918565b604051808273ffffffffffffffffffffffffffffffffffffffff1673ffffffffffffffffffffffffffffffffffffffff16815260200191505060405180910390f35b61023f61093d565b604051808215151515815260200191505060405180910390f35b610261610950565b005b6102a56004803603602081101561027957600080fd5b81019080803573ffffffffffffffffffffffffffffffffffffffff169060200190929190505050610b65565b604051808473ffffffffffffffffffffffffffffffffffffffff1673ffffffffffffffffffffffffffffffffffffffff1681526020018360028111156102e757fe5b60ff16815260200182151515158152602001935050505060405180910390f35b61030f610bc9565b6040518082815260200191505060405180910390f35b61032d610bcf565b6040518082815260200191505060405180910390f35b6103856004803603602081101561035957600080fd5b81019080803573ffffffffffffffffffffffffffffffffffffffff169060200190929190505050610bd5565b005b3373ffffffffffffffffffffffffffffffffffffffff166000809054906101000a900473ffffffffffffffffffffffffffffffffffffffff1673ffffffffffffffffffffffffffffffffffffffff161461042c576040517f08c379a0000000000000000000000000000000000000000000000000000000008152600401808060200182810382526022815260200180610eb66022913960400191505060405180910390fd5b600560008273ffffffffffffffffffffffffffffffffffffffff1673ffffffffffffffffffffffffffffffffffffffff16815260200190815260200160002060000160159054906101000a900460ff166104d1576040517f08c379a0000000000000000000000000000000000000000000000000000000008152600401808060200182810382526027815260200180610e8f6027913960400191505060405180910390fd5b600060028111156104de57fe5b600560008373ffffffffffffffffffffffffffffffffffffffff1673ffffffffffffffffffffffffffffffffffffffff16815260200190815260200160002060000160149054906101000a900460ff16600281111561053957fe5b1461058f576040517f08c379a000000000000000000000000000000000000000000000000000000000815260040180806020018281038252603c815260200180610e53603c913960400191505060405180910390fd5b600560008273ffffffffffffffffffffffffffffffffffffffff1673ffffffffffffffffffffffffffffffffffffffff168152602001908152602001600020600080820160006101000a81549073ffffffffffffffffffffffffffffffffffffffff02191690556000820160146101000a81549060ff02191690556000820160156101000a81549060ff0219169055505050565b6000600281111561063057fe5b600560003373ffffffffffffffffffffffffffffffffffffffff1673ffffffffffffffffffffffffffffffffffffffff16815260200190815260200160002060000160149054906101000a900460ff16600281111561068b57fe5b146106e1576040517f08c379a000000000000000000000000000000000000000000000000000000000815260040180806020018281038252603e815260200180610ed8603e913960400191505060405180910390fd5b6001600560003373ffffffffffffffffffffffffffffffffffffffff1673ffffffffffffffffffffffffffffffffffffffff16815260200190815260200160002060000160146101000a81548160ff0219169083600281111561074057fe5b02179055506001600254016002819055506001546002541415610836576001600360006101000a81548160ff0219169083151502179055507f7e5a9a02ca6a02eba87c132afc55547e8b3844922601659c1167b1281d6061bf600460000160405180806020018281038252838181546001816001161561010002031660029004815260200191508054600181600116156101000203166002900480156108275780601f106107fc57610100808354040283529160200191610827565b820191906000526020600020905b81548152906001019060200180831161080a57829003601f168201915b50509250505060405180910390a15b565b6004806000018054600181600116156101000203166002900480601f0160208091040260200160405190810160405280929190818152602001828054600181600116156101000203166002900480156108d25780601f106108a7576101008083540402835291602001916108d2565b820191906000526020600020905b8154815290600101906020018083116108b557829003601f168201915b5050505050905081565b600681815481106108e957fe5b906000526020600020016000915054906101000a900473ffffffffffffffffffffffffffffffffffffffff1681565b6000809054906101000a900473ffffffffffffffffffffffffffffffffffffffff1681565b600360009054906101000a900460ff1681565b6000600281111561095d57fe5b600560003373ffffffffffffffffffffffffffffffffffffffff1673ffffffffffffffffffffffffffffffffffffffff16815260200190815260200160002060000160149054906101000a900460ff1660028111156109b857fe5b14610a0e576040517f08c379a000000000000000000000000000000000000000000000000000000000815260040180806020018281038252603e815260200180610ed8603e913960400191505060405180910390fd5b6002600560003373ffffffffffffffffffffffffffffffffffffffff1673ffffffffffffffffffffffffffffffffffffffff16815260200190815260200160002060000160146101000a81548160ff02191690836002811115610a6d57fe5b02179055506001600254016002819055506001546002541415610b63576001600360006101000a81548160ff0219169083151502179055507f7e5a9a02ca6a02eba87c132afc55547e8b3844922601659c1167b1281d6061bf60046000016040518080602001828103825283818154600181600116156101000203166002900481526020019150805460018160011615610100020316600290048015610b545780601f10610b2957610100808354040283529160200191610b54565b820191906000526020600020905b815481529060010190602001808311610b3757829003601f168201915b50509250505060405180910390a15b565b60056020528060005260406000206000915090508060000160009054906101000a900473ffffffffffffffffffffffffffffffffffffffff16908060000160149054906101000a900460ff16908060000160159054906101000a900460ff16905083565b60015481565b60025481565b3373ffffffffffffffffffffffffffffffffffffffff166000809054906101000a900473ffffffffffffffffffffffffffffffffffffffff1673ffffffffffffffffffffffffffffffffffffffff1614610c7a576040517f08c379a0000000000000000000000000000000000000000000000000000000008152600401808060200182810382526022815260200180610eb66022913960400191505060405180910390fd5b600560008273ffffffffffffffffffffffffffffffffffffffff1673ffffffffffffffffffffffffffffffffffffffff16815260200190815260200160002060000160159054906101000a900460ff1615610d3d576040517f08c379a000000000000000000000000000000000000000000000000000000000815260040180806020018281038252601a8152602001807f5061727469636970616e7420616c72656164792065786973747300000000000081525060200191505060405180910390fd5b60405180606001604052808273ffffffffffffffffffffffffffffffffffffffff16815260200160006002811115610d7157fe5b815260200160011515815250600560008373ffffffffffffffffffffffffffffffffffffffff1673ffffffffffffffffffffffffffffffffffffffff16815260200190815260200160002060008201518160000160006101000a81548173ffffffffffffffffffffffffffffffffffffffff021916908373ffffffffffffffffffffffffffffffffffffffff16021790555060208201518160000160146101000a81548160ff02191690836002811115610e2757fe5b021790555060408201518160000160156101000a81548160ff0219169083151502179055509050505056fe4e6f7420616c6c6f77656420746f2072656d6f766520616464726573732e20557365722068617320616c72656164792070617274696369706174656441646472657373206d75737420626520657869737420696e207369676e6174757265206c6973744f6e6c79206f776e65722063616e20706572666f726d207468697320616374696f6e596f7520617265206e6f7420656c696769626c65206f7220796f75206861766520616c726561647920706572666f726d6564207468697320616374696f6ea265627a7a723158202a0a1eb11cccba9a8ac95a3a593ced1cf6d4c7335b31010e7440904a39a6993064736f6c63430005100032",
  "source": "// SPDX-License-Identifier: MIT\n\npragma solidity 0.5.16;\n\ncontract DecentraDocuSign {\n    address public owner;\n    uint public signersCount =0;\n    uint public signatureCount =0;\n    bool public completed = false;\n    \n    enum Status {\n        PENDING,\n        APPROVED,\n        DECLINED\n    }\n    \n    struct Signature {\n        address owner;\n        Status status;\n        bool exists;\n    }\n    \n    struct Document {\n        string path;\n    }\n    \n    Document public document;\n    mapping(address=>Signature) public signatures;\n    address[] public signers;\n    \n    modifier isOwner {\n        require(owner==msg.sender, \"Only owner can perform this action\");\n        _;\n    }\n    \n    event DocumentAdded(string path);\n    event DocumentCompleted(string path);\n    event DocumentApproved(string path, address peformed_by);\n    event DocumentDeclined(string path, address peformed_by);\n     \n    constructor(string memory _path, address[] memory _signers) payable public {\n        owner = msg.sender;\n        \n        document = Document({path:_path});\n        \n        for(uint i=0; i<_signers.length; i++) {\n            signatures[_signers[i]] = Signature({owner: _signers[i], status: Status.PENDING, exists: true});\n        }\n        signersCount = _signers.length;\n        signers = _signers;\n        emit DocumentAdded(_path);\n    }\n    \n    function approve() public {\n        require(signatures[msg.sender].status == Status.PENDING, \"You are not eligible or you have already performed this action\");\n        signatures[msg.sender].status = Status.APPROVED;\n        signatureCount = signatureCount + 1;\n        if (signatureCount == signersCount) {\n            completed = true;\n            emit DocumentCompleted(document.path);\n        }\n        \n    }\n    \n    function decline() public {\n        require(signatures[msg.sender].status == Status.PENDING, \"You are not eligible or you have already performed this action\");\n        signatures[msg.sender].status = Status.DECLINED;\n        signatureCount = signatureCount + 1;\n        if (signatureCount == signersCount) {\n            completed = true;\n            emit DocumentCompleted(document.path);\n        }\n    }\n    \n    function addSigner(address _new_signer_addr) public isOwner {\n        require(!signatures[_new_signer_addr].exists, \"Participant already exists\");\n        signatures[_new_signer_addr] = Signature({owner:_new_signer_addr,status: Status.PENDING, exists: true}); \n    }\n    \n    function removeSigner(address _addr_to_remove) public isOwner {\n        require(signatures[_addr_to_remove].exists, \"Address must be exist in signature list\");\n        require(signatures[_addr_to_remove].status == Status.PENDING, \"Not allowed to remove address. User has already participated\");\n        delete signatures[_addr_to_remove];\n    }\n}",
  "sourcePath": "/home/felix/Projects/freelance/upwork/ewarrant/contracts/DecentraDocuSign.sol",
  "compiler": {
    "name": "solc",
    "version": "0.5.16+commit.9c3226ce.Emscripten.clang"
  },
  "schemaVersion": "3.3.2",
  "updatedAt": "2020-12-01T20:59:26.676Z",
  "devdoc": {
    "methods": {}
  },
  "userdoc": {
    "methods": {}
  }
}