{
  "contractName": "DocuSign",
  "abi": [
    {
      "inputs": [],
      "payable": false,
      "stateMutability": "nonpayable",
      "type": "constructor"
    },
    {
      "anonymous": false,
      "inputs": [
        {
          "indexed": false,
          "internalType": "uint256",
          "name": "document_id",
          "type": "uint256"
        },
        {
          "indexed": false,
          "internalType": "address",
          "name": "peformed_by",
          "type": "address"
        }
      ],
      "name": "DocumentApproved",
      "type": "event"
    },
    {
      "anonymous": false,
      "inputs": [
        {
          "indexed": false,
          "internalType": "uint256",
          "name": "document_id",
          "type": "uint256"
        }
      ],
      "name": "DocumentCompleted",
      "type": "event"
    },
    {
      "anonymous": false,
      "inputs": [
        {
          "indexed": false,
          "internalType": "uint256",
          "name": "document_id",
          "type": "uint256"
        },
        {
          "indexed": false,
          "internalType": "address",
          "name": "peformed_by",
          "type": "address"
        }
      ],
      "name": "DocumentDeclined",
      "type": "event"
    },
    {
      "constant": true,
      "inputs": [
        {
          "internalType": "uint256",
          "name": "",
          "type": "uint256"
        }
      ],
      "name": "documents",
      "outputs": [
        {
          "internalType": "address",
          "name": "publisher",
          "type": "address"
        },
        {
          "internalType": "string",
          "name": "path",
          "type": "string"
        },
        {
          "internalType": "uint256",
          "name": "expectedSignatures",
          "type": "uint256"
        },
        {
          "internalType": "uint256",
          "name": "signatureCounts",
          "type": "uint256"
        }
      ],
      "payable": false,
      "stateMutability": "view",
      "type": "function"
    },
    {
      "constant": true,
      "inputs": [],
      "name": "numOfDocuments",
      "outputs": [
        {
          "internalType": "uint256",
          "name": "",
          "type": "uint256"
        }
      ],
      "payable": false,
      "stateMutability": "view",
      "type": "function"
    },
    {
      "constant": true,
      "inputs": [],
      "name": "owner",
      "outputs": [
        {
          "internalType": "address",
          "name": "",
          "type": "address"
        }
      ],
      "payable": false,
      "stateMutability": "view",
      "type": "function"
    },
    {
      "constant": true,
      "inputs": [
        {
          "internalType": "uint256",
          "name": "",
          "type": "uint256"
        }
      ],
      "name": "publishers",
      "outputs": [
        {
          "internalType": "address",
          "name": "",
          "type": "address"
        }
      ],
      "payable": false,
      "stateMutability": "view",
      "type": "function"
    },
    {
      "constant": false,
      "inputs": [
        {
          "internalType": "string",
          "name": "_path",
          "type": "string"
        },
        {
          "internalType": "address[]",
          "name": "_signers",
          "type": "address[]"
        }
      ],
      "name": "addDocument",
      "outputs": [],
      "payable": false,
      "stateMutability": "nonpayable",
      "type": "function"
    },
    {
      "constant": false,
      "inputs": [
        {
          "internalType": "uint256",
          "name": "_documentID",
          "type": "uint256"
        },
        {
          "internalType": "address",
          "name": "_new_signer_addr",
          "type": "address"
        }
      ],
      "name": "addSigner",
      "outputs": [],
      "payable": false,
      "stateMutability": "nonpayable",
      "type": "function"
    },
    {
      "constant": false,
      "inputs": [
        {
          "internalType": "uint256",
          "name": "_documentID",
          "type": "uint256"
        },
        {
          "internalType": "address",
          "name": "_addr_to_remove",
          "type": "address"
        }
      ],
      "name": "removeSigner",
      "outputs": [],
      "payable": false,
      "stateMutability": "nonpayable",
      "type": "function"
    },
    {
      "constant": false,
      "inputs": [
        {
          "internalType": "uint256",
          "name": "_documentID",
          "type": "uint256"
        }
      ],
      "name": "approve",
      "outputs": [],
      "payable": false,
      "stateMutability": "nonpayable",
      "type": "function"
    },
    {
      "constant": false,
      "inputs": [
        {
          "internalType": "uint256",
          "name": "_documentID",
          "type": "uint256"
        }
      ],
      "name": "decline",
      "outputs": [],
      "payable": false,
      "stateMutability": "nonpayable",
      "type": "function"
    }
  ],
  "bytecode": "0x6080604052600060015534801561001557600080fd5b50336000806101000a81548173ffffffffffffffffffffffffffffffffffffffff021916908373ffffffffffffffffffffffffffffffffffffffff160217905550611496806100656000396000f3fe608060405234801561001057600080fd5b50600436106100935760003560e01c80638da5cb5b116100665780638da5cb5b146102a1578063a0355f4e146102eb578063b759f95414610319578063c2ed2b0514610347578063ff060fbd1461042f57610093565b806315a09825146100985780633156d37c146100e65780636cddd9121461013457806384bdf3fa14610283575b600080fd5b6100e4600480360360408110156100ae57600080fd5b8101908080359060200190929190803573ffffffffffffffffffffffffffffffffffffffff16906020019092919050505061049d565b005b610132600480360360408110156100fc57600080fd5b8101908080359060200190929190803573ffffffffffffffffffffffffffffffffffffffff1690602001909291905050506106ac565b005b6102816004803603604081101561014a57600080fd5b810190808035906020019064010000000081111561016757600080fd5b82018360208201111561017957600080fd5b8035906020019184600183028401116401000000008311171561019b57600080fd5b91908080601f016020809104026020016040519081016040528093929190818152602001838380828437600081840152601f19601f820116905080830192505050505050509192919290803590602001906401000000008111156101fe57600080fd5b82018360208201111561021057600080fd5b8035906020019184602083028401116401000000008311171561023257600080fd5b919080806020026020016040519081016040528093929190818152602001838360200280828437600081840152601f19601f82011690508083019250505050505050919291929050505061084f565b005b61028b610afa565b6040518082815260200191505060405180910390f35b6102a9610b00565b604051808273ffffffffffffffffffffffffffffffffffffffff1673ffffffffffffffffffffffffffffffffffffffff16815260200191505060405180910390f35b6103176004803603602081101561030157600080fd5b8101908080359060200190929190505050610b25565b005b6103456004803603602081101561032f57600080fd5b8101908080359060200190929190505050610e8e565b005b6103736004803603602081101561035d57600080fd5b81019080803590602001909291905050506111f7565b604051808573ffffffffffffffffffffffffffffffffffffffff1673ffffffffffffffffffffffffffffffffffffffff16815260200180602001848152602001838152602001828103825285818151815260200191508051906020019080838360005b838110156103f15780820151818401526020810190506103d6565b50505050905090810190601f16801561041e5780820380516001836020036101000a031916815260200191505b509550505050505060405180910390f35b61045b6004803603602081101561044557600080fd5b81019080803590602001909291905050506112df565b604051808273ffffffffffffffffffffffffffffffffffffffff1673ffffffffffffffffffffffffffffffffffffffff16815260200191505060405180910390f35b60006002600084815260200190815260200160002090503373ffffffffffffffffffffffffffffffffffffffff168160000160009054906101000a900473ffffffffffffffffffffffffffffffffffffffff1673ffffffffffffffffffffffffffffffffffffffff161461055c576040517f08c379a000000000000000000000000000000000000000000000000000000000815260040180806020018281038252602b815260200180611437602b913960400191505060405180910390fd5b80600401548160030154116105bc576040517f08c379a000000000000000000000000000000000000000000000000000000000815260040180806020018281038252602981526020018061140e6029913960400191505060405180910390fd5b60405180604001604052808373ffffffffffffffffffffffffffffffffffffffff168152602001600060028111156105f057fe5b8152508160010160008473ffffffffffffffffffffffffffffffffffffffff1673ffffffffffffffffffffffffffffffffffffffff16815260200190815260200160002060008201518160000160006101000a81548173ffffffffffffffffffffffffffffffffffffffff021916908373ffffffffffffffffffffffffffffffffffffffff16021790555060208201518160000160146101000a81548160ff0219169083600281111561069f57fe5b0217905550905050505050565b60006002600084815260200190815260200160002090503373ffffffffffffffffffffffffffffffffffffffff168160000160009054906101000a900473ffffffffffffffffffffffffffffffffffffffff1673ffffffffffffffffffffffffffffffffffffffff161461076b576040517f08c379a000000000000000000000000000000000000000000000000000000000815260040180806020018281038252602b815260200180611437602b913960400191505060405180910390fd5b80600401548160030154116107cb576040517f08c379a000000000000000000000000000000000000000000000000000000000815260040180806020018281038252602981526020018061140e6029913960400191505060405180910390fd5b8060010160008373ffffffffffffffffffffffffffffffffffffffff1673ffffffffffffffffffffffffffffffffffffffff168152602001908152602001600020600080820160006101000a81549073ffffffffffffffffffffffffffffffffffffffff02191690556000820160146101000a81549060ff02191690555050505050565b60008251116108c6576040517f08c379a00000000000000000000000000000000000000000000000000000000081526004018080602001828103825260108152602001807f506174682069732072657175697265640000000000000000000000000000000081525060200191505060405180910390fd5b600081511161093d576040517f08c379a00000000000000000000000000000000000000000000000000000000081526004018080602001828103825260188152602001807f5369676e657273206c697374206973207265717569726564000000000000000081525060200191505060405180910390fd5b60006002600060015481526020019081526020016000209050338160000160006101000a81548173ffffffffffffffffffffffffffffffffffffffff021916908373ffffffffffffffffffffffffffffffffffffffff160217905550828160020190805190602001906109b1929190611312565b5081518160030181905550600180540160018190555060008090505b8251811015610af45760405180604001604052808483815181106109ed57fe5b602002602001015173ffffffffffffffffffffffffffffffffffffffff16815260200160006002811115610a1d57fe5b815250826001016000858481518110610a3257fe5b602002602001015173ffffffffffffffffffffffffffffffffffffffff1673ffffffffffffffffffffffffffffffffffffffff16815260200190815260200160002060008201518160000160006101000a81548173ffffffffffffffffffffffffffffffffffffffff021916908373ffffffffffffffffffffffffffffffffffffffff16021790555060208201518160000160146101000a81548160ff02191690836002811115610adf57fe5b021790555090505080806001019150506109cd565b50505050565b60015481565b6000809054906101000a900473ffffffffffffffffffffffffffffffffffffffff1681565b60006002600083815260200190815260200160002090503373ffffffffffffffffffffffffffffffffffffffff168160010160003373ffffffffffffffffffffffffffffffffffffffff1673ffffffffffffffffffffffffffffffffffffffff16815260200190815260200160002060000160009054906101000a900473ffffffffffffffffffffffffffffffffffffffff1673ffffffffffffffffffffffffffffffffffffffff1614610c41576040517f08c379a00000000000000000000000000000000000000000000000000000000081526004018080602001828103825260128152602001807f4e6f7420616c6c6f776564207369676e6572000000000000000000000000000081525060200191505060405180910390fd5b60006002811115610c4e57fe5b8160010160003373ffffffffffffffffffffffffffffffffffffffff1673ffffffffffffffffffffffffffffffffffffffff16815260200190815260200160002060000160149054906101000a900460ff166002811115610cab57fe5b14610d01576040517f08c379a00000000000000000000000000000000000000000000000000000000081526004018080602001828103825260318152602001806113b86031913960400191505060405180910390fd5b8060040154816003015411610d61576040517f08c379a00000000000000000000000000000000000000000000000000000000081526004018080602001828103825260258152602001806113e96025913960400191505060405180910390fd5b60028160010160003373ffffffffffffffffffffffffffffffffffffffff1673ffffffffffffffffffffffffffffffffffffffff16815260200190815260200160002060000160146101000a81548160ff02191690836002811115610dc257fe5b0217905550600181600401540181600401819055507fe1ef4e2ff90539cf7e74f2df7091420cfc4c97305c00f784121223e4c454a4c58233604051808381526020018273ffffffffffffffffffffffffffffffffffffffff1673ffffffffffffffffffffffffffffffffffffffff1681526020019250505060405180910390a1806004015481600301541415610e8a577f9177cd5b2ffd7b14208568cc03ffbd2c7043207657ee49df4c31e41760330da6826040518082815260200191505060405180910390a15b5050565b60006002600083815260200190815260200160002090503373ffffffffffffffffffffffffffffffffffffffff168160010160003373ffffffffffffffffffffffffffffffffffffffff1673ffffffffffffffffffffffffffffffffffffffff16815260200190815260200160002060000160009054906101000a900473ffffffffffffffffffffffffffffffffffffffff1673ffffffffffffffffffffffffffffffffffffffff1614610faa576040517f08c379a00000000000000000000000000000000000000000000000000000000081526004018080602001828103825260128152602001807f4e6f7420616c6c6f776564207369676e6572000000000000000000000000000081525060200191505060405180910390fd5b60006002811115610fb757fe5b8160010160003373ffffffffffffffffffffffffffffffffffffffff1673ffffffffffffffffffffffffffffffffffffffff16815260200190815260200160002060000160149054906101000a900460ff16600281111561101457fe5b1461106a576040517f08c379a00000000000000000000000000000000000000000000000000000000081526004018080602001828103825260318152602001806113b86031913960400191505060405180910390fd5b80600401548160030154116110ca576040517f08c379a00000000000000000000000000000000000000000000000000000000081526004018080602001828103825260258152602001806113e96025913960400191505060405180910390fd5b60018160010160003373ffffffffffffffffffffffffffffffffffffffff1673ffffffffffffffffffffffffffffffffffffffff16815260200190815260200160002060000160146101000a81548160ff0219169083600281111561112b57fe5b0217905550600181600401540181600401819055507feb515de70b5e2623866de285cd98dd8e7ca7b975492ed341f097fb4888542f8f8233604051808381526020018273ffffffffffffffffffffffffffffffffffffffff1673ffffffffffffffffffffffffffffffffffffffff1681526020019250505060405180910390a18060040154816003015414156111f3577f9177cd5b2ffd7b14208568cc03ffbd2c7043207657ee49df4c31e41760330da6826040518082815260200191505060405180910390a15b5050565b60026020528060005260406000206000915090508060000160009054906101000a900473ffffffffffffffffffffffffffffffffffffffff1690806002018054600181600116156101000203166002900480601f0160208091040260200160405190810160405280929190818152602001828054600181600116156101000203166002900480156112c95780601f1061129e576101008083540402835291602001916112c9565b820191906000526020600020905b8154815290600101906020018083116112ac57829003601f168201915b5050505050908060030154908060040154905084565b60036020528060005260406000206000915054906101000a900473ffffffffffffffffffffffffffffffffffffffff1681565b828054600181600116156101000203166002900490600052602060002090601f016020900481019282601f1061135357805160ff1916838001178555611381565b82800160010185558215611381579182015b82811115611380578251825591602001919060010190611365565b5b50905061138e9190611392565b5090565b6113b491905b808211156113b0576000816000905550600101611398565b5090565b9056fe596f75206861766520616c726561647920706572666f726d656420616374696f6e206f6e2074686520646f63756d656e74416c6c20616374696f6e7320616c72656164792074616b656e206f6e20646f63756d656e745369676e696e67206f662074686520646f63756d656e7420616c726561647920636f6d706c657465644f6e6c7920646f63756d656e74206f776e65722063616e20706572666f726d207468697320616374696f6ea265627a7a72315820f0e6559e20c95223a65f5df41c793996f43ce85c1ecb569dd7ad4b0e245863de64736f6c63430005100032",
  "source": "// SPDX-License-Identifier: MIT\npragma solidity >=0.4.22 <0.8.0;\n\ncontract DocuSign {\n    address public owner;\n    uint256 public numOfDocuments = 0;\n\n    enum Status {PENDING, APPROVE, DECLINED}\n\n    struct Signer {\n        address account;\n        Status status;\n    }\n\n    struct Document {\n        address publisher;\n        mapping(address => Signer) signers;\n        string path;\n        uint256 expectedSignatures;\n        uint256 signatureCounts;\n    }\n\n    mapping(uint256 => Document) public documents;\n    mapping(uint256 => address) public publishers;\n\n    modifier isOwner {\n        require(owner == msg.sender, \"Only owner can perform this action\");\n        _;\n    }\n\n    event DocumentCompleted(uint256 document_id);\n    event DocumentApproved(uint256 document_id, address peformed_by);\n    event DocumentDeclined(uint256 document_id, address peformed_by);\n\n    constructor() public {\n        owner = msg.sender;\n    }\n\n    function addDocument(string memory _path, address[] memory _signers)\n        public\n    {\n        require(bytes(_path).length > 0, \"Path is required\");\n        require(_signers.length > 0, \"Signers list is required\");\n\n        Document storage document = documents[numOfDocuments];\n        document.publisher = msg.sender;\n        document.path = _path;\n        document.expectedSignatures = _signers.length;\n        numOfDocuments = numOfDocuments + 1;\n\n        for (uint256 i = 0; i < _signers.length; i++) {\n            document.signers[_signers[i]] = Signer({\n                account: _signers[i],\n                status: Status.PENDING\n            });\n        }\n    }\n\n    function addSigner(uint256 _documentID, address _new_signer_addr) public {\n        Document storage document = documents[_documentID];\n        require(\n            document.publisher == msg.sender,\n            \"Only document owner can perform this action\"\n        );\n        require(\n            document.expectedSignatures > document.signatureCounts,\n            \"Signing of the document already completed\"\n        );\n\n        document.signers[_new_signer_addr] = Signer({\n            account: _new_signer_addr,\n            status: Status.PENDING\n        });\n    }\n\n    function removeSigner(uint256 _documentID, address _addr_to_remove) public {\n        Document storage document = documents[_documentID];\n        require(\n            document.publisher == msg.sender,\n            \"Only document owner can perform this action\"\n        );\n        require(\n            document.expectedSignatures > document.signatureCounts,\n            \"Signing of the document already completed\"\n        );\n        delete document.signers[_addr_to_remove];\n    }\n\n    function approve(uint256 _documentID) public {\n        Document storage document = documents[_documentID];\n        require(\n            document.signers[msg.sender].account == msg.sender,\n            \"Not allowed signer\"\n        );\n        require(\n            document.signers[msg.sender].status == Status.PENDING,\n            \"You have already performed action on the document\"\n        );\n        require(\n            document.expectedSignatures > document.signatureCounts,\n            \"All actions already taken on document\"\n        );\n        document.signers[msg.sender].status = Status.APPROVE;\n        document.signatureCounts = document.signatureCounts + 1;\n\n        emit DocumentApproved(_documentID, msg.sender);\n        if (document.expectedSignatures == document.signatureCounts) {\n            emit DocumentCompleted(_documentID);\n        }\n    }\n\n    function decline(uint256 _documentID) public {\n        Document storage document = documents[_documentID];\n        require(\n            document.signers[msg.sender].account == msg.sender,\n            \"Not allowed signer\"\n        );\n        require(\n            document.signers[msg.sender].status == Status.PENDING,\n            \"You have already performed action on the document\"\n        );\n        require(\n            document.expectedSignatures > document.signatureCounts,\n            \"All actions already taken on document\"\n        );\n        document.signers[msg.sender].status = Status.DECLINED;\n        document.signatureCounts = document.signatureCounts + 1;\n\n        emit DocumentDeclined(_documentID, msg.sender);\n        if (document.expectedSignatures == document.signatureCounts) {\n            emit DocumentCompleted(_documentID);\n        }\n    }\n}\n",
  "sourcePath": "/home/felix/Projects/freelance/upwork/ewarrant/contracts/DocuSign.sol",
  "compiler": {
    "name": "solc",
    "version": "0.5.16+commit.9c3226ce.Emscripten.clang"
  },
  "schemaVersion": "3.3.2",
  "updatedAt": "2020-12-01T08:37:40.837Z",
  "devdoc": {
    "methods": {}
  },
  "userdoc": {
    "methods": {}
  }
}