{
  "contractName": "EWarranty",
  "abi": [
    {
      "inputs": [
        {
          "internalType": "string",
          "name": "_organization",
          "type": "string"
        },
        {
          "internalType": "string",
          "name": "_domain",
          "type": "string"
        }
      ],
      "payable": false,
      "stateMutability": "nonpayable",
      "type": "constructor"
    },
    {
      "constant": true,
      "inputs": [
        {
          "internalType": "address",
          "name": "",
          "type": "address"
        }
      ],
      "name": "customers",
      "outputs": [
        {
          "internalType": "address",
          "name": "account",
          "type": "address"
        },
        {
          "internalType": "string",
          "name": "location",
          "type": "string"
        },
        {
          "internalType": "string",
          "name": "city",
          "type": "string"
        },
        {
          "internalType": "string",
          "name": "country",
          "type": "string"
        }
      ],
      "payable": false,
      "stateMutability": "view",
      "type": "function"
    },
    {
      "constant": true,
      "inputs": [],
      "name": "domain",
      "outputs": [
        {
          "internalType": "string",
          "name": "",
          "type": "string"
        }
      ],
      "payable": false,
      "stateMutability": "view",
      "type": "function"
    },
    {
      "constant": true,
      "inputs": [],
      "name": "organization",
      "outputs": [
        {
          "internalType": "string",
          "name": "",
          "type": "string"
        }
      ],
      "payable": false,
      "stateMutability": "view",
      "type": "function"
    },
    {
      "constant": true,
      "inputs": [],
      "name": "owner",
      "outputs": [
        {
          "internalType": "address",
          "name": "",
          "type": "address"
        }
      ],
      "payable": false,
      "stateMutability": "view",
      "type": "function"
    },
    {
      "constant": true,
      "inputs": [
        {
          "internalType": "string",
          "name": "",
          "type": "string"
        }
      ],
      "name": "products",
      "outputs": [
        {
          "internalType": "string",
          "name": "sku",
          "type": "string"
        },
        {
          "internalType": "string",
          "name": "name",
          "type": "string"
        },
        {
          "internalType": "uint256",
          "name": "price",
          "type": "uint256"
        }
      ],
      "payable": false,
      "stateMutability": "view",
      "type": "function"
    },
    {
      "constant": false,
      "inputs": [
        {
          "internalType": "string",
          "name": "_sku",
          "type": "string"
        },
        {
          "internalType": "string",
          "name": "_name",
          "type": "string"
        },
        {
          "internalType": "uint256",
          "name": "_price",
          "type": "uint256"
        }
      ],
      "name": "addProduct",
      "outputs": [],
      "payable": false,
      "stateMutability": "nonpayable",
      "type": "function"
    },
    {
      "constant": false,
      "inputs": [
        {
          "internalType": "string",
          "name": "_code",
          "type": "string"
        },
        {
          "internalType": "address",
          "name": "_incharged",
          "type": "address"
        },
        {
          "internalType": "string",
          "name": "_location",
          "type": "string"
        },
        {
          "internalType": "string",
          "name": "_city",
          "type": "string"
        },
        {
          "internalType": "string",
          "name": "_country",
          "type": "string"
        }
      ],
      "name": "registerServiceCenter",
      "outputs": [],
      "payable": false,
      "stateMutability": "nonpayable",
      "type": "function"
    },
    {
      "constant": false,
      "inputs": [
        {
          "internalType": "string",
          "name": "_productSku",
          "type": "string"
        },
        {
          "internalType": "address",
          "name": "_customerAddress",
          "type": "address"
        },
        {
          "internalType": "string",
          "name": "_location",
          "type": "string"
        },
        {
          "internalType": "string",
          "name": "_city",
          "type": "string"
        },
        {
          "internalType": "string",
          "name": "_country",
          "type": "string"
        },
        {
          "internalType": "string",
          "name": "_terms",
          "type": "string"
        }
      ],
      "name": "registerWarranty",
      "outputs": [],
      "payable": false,
      "stateMutability": "nonpayable",
      "type": "function"
    },
    {
      "constant": true,
      "inputs": [
        {
          "internalType": "uint256",
          "name": "id",
          "type": "uint256"
        }
      ],
      "name": "getWarranty",
      "outputs": [
        {
          "components": [
            {
              "internalType": "uint256",
              "name": "id",
              "type": "uint256"
            },
            {
              "components": [
                {
                  "internalType": "string",
                  "name": "sku",
                  "type": "string"
                },
                {
                  "internalType": "string",
                  "name": "name",
                  "type": "string"
                },
                {
                  "internalType": "uint256",
                  "name": "price",
                  "type": "uint256"
                }
              ],
              "internalType": "struct EWarranty.Product",
              "name": "product",
              "type": "tuple"
            },
            {
              "components": [
                {
                  "internalType": "address",
                  "name": "account",
                  "type": "address"
                },
                {
                  "internalType": "string",
                  "name": "location",
                  "type": "string"
                },
                {
                  "internalType": "string",
                  "name": "city",
                  "type": "string"
                },
                {
                  "internalType": "string",
                  "name": "country",
                  "type": "string"
                }
              ],
              "internalType": "struct EWarranty.Customer",
              "name": "customer",
              "type": "tuple"
            },
            {
              "internalType": "uint256",
              "name": "start",
              "type": "uint256"
            },
            {
              "internalType": "uint256",
              "name": "expiry",
              "type": "uint256"
            },
            {
              "internalType": "enum EWarranty.WARRANTY_STATUS",
              "name": "status",
              "type": "uint8"
            },
            {
              "internalType": "string",
              "name": "terms",
              "type": "string"
            }
          ],
          "internalType": "struct EWarranty.Warranty",
          "name": "",
          "type": "tuple"
        }
      ],
      "payable": false,
      "stateMutability": "view",
      "type": "function"
    },
    {
      "constant": false,
      "inputs": [
        {
          "internalType": "uint256",
          "name": "_warrantyID",
          "type": "uint256"
        }
      ],
      "name": "registerClaim",
      "outputs": [],
      "payable": false,
      "stateMutability": "nonpayable",
      "type": "function"
    },
    {
      "constant": true,
      "inputs": [
        {
          "internalType": "uint256",
          "name": "id",
          "type": "uint256"
        }
      ],
      "name": "getClaim",
      "outputs": [
        {
          "components": [
            {
              "internalType": "uint256",
              "name": "id",
              "type": "uint256"
            },
            {
              "internalType": "address",
              "name": "reportedBy",
              "type": "address"
            },
            {
              "components": [
                {
                  "internalType": "uint256",
                  "name": "id",
                  "type": "uint256"
                },
                {
                  "components": [
                    {
                      "internalType": "string",
                      "name": "sku",
                      "type": "string"
                    },
                    {
                      "internalType": "string",
                      "name": "name",
                      "type": "string"
                    },
                    {
                      "internalType": "uint256",
                      "name": "price",
                      "type": "uint256"
                    }
                  ],
                  "internalType": "struct EWarranty.Product",
                  "name": "product",
                  "type": "tuple"
                },
                {
                  "components": [
                    {
                      "internalType": "address",
                      "name": "account",
                      "type": "address"
                    },
                    {
                      "internalType": "string",
                      "name": "location",
                      "type": "string"
                    },
                    {
                      "internalType": "string",
                      "name": "city",
                      "type": "string"
                    },
                    {
                      "internalType": "string",
                      "name": "country",
                      "type": "string"
                    }
                  ],
                  "internalType": "struct EWarranty.Customer",
                  "name": "customer",
                  "type": "tuple"
                },
                {
                  "internalType": "uint256",
                  "name": "start",
                  "type": "uint256"
                },
                {
                  "internalType": "uint256",
                  "name": "expiry",
                  "type": "uint256"
                },
                {
                  "internalType": "enum EWarranty.WARRANTY_STATUS",
                  "name": "status",
                  "type": "uint8"
                },
                {
                  "internalType": "string",
                  "name": "terms",
                  "type": "string"
                }
              ],
              "internalType": "struct EWarranty.Warranty",
              "name": "warranty",
              "type": "tuple"
            },
            {
              "internalType": "enum EWarranty.CLAIM_STATUS",
              "name": "status",
              "type": "uint8"
            }
          ],
          "internalType": "struct EWarranty.Claim",
          "name": "",
          "type": "tuple"
        }
      ],
      "payable": false,
      "stateMutability": "view",
      "type": "function"
    }
  ],
  "bytecode": "0x6080604052600060035560006004553480156200001b57600080fd5b506040516200341238038062003412833981810160405262000041919081019062000255565b600082511162000088576040517f08c379a00000000000000000000000000000000000000000000000000000000081526004016200007f906200036e565b60405180910390fd5b6000815111620000cf576040517f08c379a0000000000000000000000000000000000000000000000000000000008152600401620000c6906200034c565b60405180910390fd5b8160009080519060200190620000e79291906200014a565b508060019080519060200190620001009291906200014a565b5033600260006101000a81548173ffffffffffffffffffffffffffffffffffffffff021916908373ffffffffffffffffffffffffffffffffffffffff160217905550505062000432565b828054600181600116156101000203166002900490600052602060002090601f016020900481019282601f106200018d57805160ff1916838001178555620001be565b82800160010185558215620001be579182015b82811115620001bd578251825591602001919060010190620001a0565b5b509050620001cd9190620001d1565b5090565b620001f691905b80821115620001f2576000816000905550600101620001d8565b5090565b90565b600082601f8301126200020b57600080fd5b8151620002226200021c82620003be565b62000390565b915080825260208301602083018583830111156200023f57600080fd5b6200024c838284620003fc565b50505092915050565b600080604083850312156200026957600080fd5b600083015167ffffffffffffffff8111156200028457600080fd5b6200029285828601620001f9565b925050602083015167ffffffffffffffff811115620002b057600080fd5b620002be85828601620001f9565b9150509250929050565b6000620002d7601383620003eb565b91507f5f646f6d61696e206973207265717569726564000000000000000000000000006000830152602082019050919050565b600062000319601983620003eb565b91507f5f6f7267616e697a6174696f6e206973207265717569726564000000000000006000830152602082019050919050565b600060208201905081810360008301526200036781620002c8565b9050919050565b6000602082019050818103600083015262000389816200030a565b9050919050565b6000604051905081810181811067ffffffffffffffff82111715620003b457600080fd5b8060405250919050565b600067ffffffffffffffff821115620003d657600080fd5b601f19601f8301169050602081019050919050565b600082825260208201905092915050565b60005b838110156200041c578082015181840152602081019050620003ff565b838111156200042c576000848401525b50505050565b612fd080620004426000396000f3fe608060405234801561001057600080fd5b50600436106100a95760003560e01c80638da5cb5b116100715780638da5cb5b1461017d578063b18704ef1461019b578063c2fb26a6146101b7578063e448b333146101d5578063e98cbb86146101f1578063f28ea1c114610221576100a9565b80630186a423146100ae57806323bd4d7a146100e057806327166aa6146100fe578063336989ae1461011a5780635aef24471461014d575b600080fd5b6100c860048036036100c391908101906124dc565b61023d565b6040516100d793929190612cdb565b60405180910390f35b6100e86103ad565b6040516100f59190612cb9565b60405180910390f35b61011860048036036101139190810190612774565b61044b565b005b610134600480360361012f91908101906124b3565b610c3a565b6040516101449493929190612c5f565b60405180910390f35b61016760048036036101629190810190612774565b610e52565b6040516101749190612d60565b60405180910390f35b6101856113bf565b6040516101929190612c44565b60405180910390f35b6101b560048036036101b091908101906125f4565b6113e5565b005b6101bf6118f7565b6040516101cc9190612cb9565b60405180910390f35b6101ef60048036036101ea919081019061251d565b611995565b005b61020b60048036036102069190810190612774565b611b51565b6040516102189190612d82565b60405180910390f35b61023b600480360361023691908101906126f5565b61201d565b005b600681805160208101820180518482526020830160208501208183528095505050505050600091509050806000018054600181600116156101000203166002900480601f0160208091040260200160405190810160405280929190818152602001828054600181600116156101000203166002900480156102ff5780601f106102d4576101008083540402835291602001916102ff565b820191906000526020600020905b8154815290600101906020018083116102e257829003601f168201915b505050505090806001018054600181600116156101000203166002900480601f01602080910402602001604051908101604052809291908181526020018280546001816001161561010002031660029004801561039d5780601f106103725761010080835404028352916020019161039d565b820191906000526020600020905b81548152906001019060200180831161038057829003601f168201915b5050505050908060020154905083565b60008054600181600116156101000203166002900480601f0160208091040260200160405190810160405280929190818152602001828054600181600116156101000203166002900480156104435780601f1061041857610100808354040283529160200191610443565b820191906000526020600020905b81548152906001019060200180831161042657829003601f168201915b505050505081565b610453612142565b600760008381526020019081526020016000206040518060e00160405290816000820154815260200160018201604051806060016040529081600082018054600181600116156101000203166002900480601f0160208091040260200160405190810160405280929190818152602001828054600181600116156101000203166002900480156105245780601f106104f957610100808354040283529160200191610524565b820191906000526020600020905b81548152906001019060200180831161050757829003601f168201915b50505050508152602001600182018054600181600116156101000203166002900480601f0160208091040260200160405190810160405280929190818152602001828054600181600116156101000203166002900480156105c65780601f1061059b576101008083540402835291602001916105c6565b820191906000526020600020905b8154815290600101906020018083116105a957829003601f168201915b505050505081526020016002820154815250508152602001600482016040518060800160405290816000820160009054906101000a900473ffffffffffffffffffffffffffffffffffffffff1673ffffffffffffffffffffffffffffffffffffffff1673ffffffffffffffffffffffffffffffffffffffff168152602001600182018054600181600116156101000203166002900480601f0160208091040260200160405190810160405280929190818152602001828054600181600116156101000203166002900480156106dc5780601f106106b1576101008083540402835291602001916106dc565b820191906000526020600020905b8154815290600101906020018083116106bf57829003601f168201915b50505050508152602001600282018054600181600116156101000203166002900480601f01602080910402602001604051908101604052809291908181526020018280546001816001161561010002031660029004801561077e5780601f106107535761010080835404028352916020019161077e565b820191906000526020600020905b81548152906001019060200180831161076157829003601f168201915b50505050508152602001600382018054600181600116156101000203166002900480601f0160208091040260200160405190810160405280929190818152602001828054600181600116156101000203166002900480156108205780601f106107f557610100808354040283529160200191610820565b820191906000526020600020905b81548152906001019060200180831161080357829003601f168201915b50505050508152505081526020016008820154815260200160098201548152602001600a820160009054906101000a900460ff16600181111561085f57fe5b600181111561086a57fe5b8152602001600b82018054600181600116156101000203166002900480601f0160208091040260200160405190810160405280929190818152602001828054600181600116156101000203166002900480156109075780601f106108dc57610100808354040283529160200191610907565b820191906000526020600020905b8154815290600101906020018083116108ea57829003601f168201915b50505050508152505090503373ffffffffffffffffffffffffffffffffffffffff1681604001516000015173ffffffffffffffffffffffffffffffffffffffff1614806109a157503373ffffffffffffffffffffffffffffffffffffffff16600260009054906101000a900473ffffffffffffffffffffffffffffffffffffffff1673ffffffffffffffffffffffffffffffffffffffff16145b6109e0576040517f08c379a00000000000000000000000000000000000000000000000000000000081526004016109d790612d20565b60405180910390fd5b6001600454016004819055506109f4612196565b604051806080016040528060045481526020013373ffffffffffffffffffffffffffffffffffffffff16815260200183815260200160006004811115610a3657fe5b8152509050806008600060045481526020019081526020016000206000820151816000015560208201518160010160006101000a81548173ffffffffffffffffffffffffffffffffffffffff021916908373ffffffffffffffffffffffffffffffffffffffff160217905550604082015181600201600082015181600001556020820151816001016000820151816000019080519060200190610ada9291906121e5565b506020820151816001019080519060200190610af79291906121e5565b5060408201518160020155505060408201518160040160008201518160000160006101000a81548173ffffffffffffffffffffffffffffffffffffffff021916908373ffffffffffffffffffffffffffffffffffffffff1602179055506020820151816001019080519060200190610b709291906121e5565b506040820151816002019080519060200190610b8d9291906121e5565b506060820151816003019080519060200190610baa9291906121e5565b505050606082015181600801556080820151816009015560a082015181600a0160006101000a81548160ff02191690836001811115610be557fe5b021790555060c082015181600b019080519060200190610c069291906121e5565b505050606082015181600e0160006101000a81548160ff02191690836004811115610c2d57fe5b0217905550905050505050565b60056020528060005260406000206000915090508060000160009054906101000a900473ffffffffffffffffffffffffffffffffffffffff1690806001018054600181600116156101000203166002900480601f016020809104026020016040519081016040528092919081815260200182805460018160011615610100020316600290048015610d0c5780601f10610ce157610100808354040283529160200191610d0c565b820191906000526020600020905b815481529060010190602001808311610cef57829003601f168201915b505050505090806002018054600181600116156101000203166002900480601f016020809104026020016040519081016040528092919081815260200182805460018160011615610100020316600290048015610daa5780601f10610d7f57610100808354040283529160200191610daa565b820191906000526020600020905b815481529060010190602001808311610d8d57829003601f168201915b505050505090806003018054600181600116156101000203166002900480601f016020809104026020016040519081016040528092919081815260200182805460018160011615610100020316600290048015610e485780601f10610e1d57610100808354040283529160200191610e48565b820191906000526020600020905b815481529060010190602001808311610e2b57829003601f168201915b5050505050905084565b610e5a612196565b60086000838152602001908152602001600020604051806080016040529081600082015481526020016001820160009054906101000a900473ffffffffffffffffffffffffffffffffffffffff1673ffffffffffffffffffffffffffffffffffffffff1673ffffffffffffffffffffffffffffffffffffffff168152602001600282016040518060e00160405290816000820154815260200160018201604051806060016040529081600082018054600181600116156101000203166002900480601f016020809104026020016040519081016040528092919081815260200182805460018160011615610100020316600290048015610f9b5780601f10610f7057610100808354040283529160200191610f9b565b820191906000526020600020905b815481529060010190602001808311610f7e57829003601f168201915b50505050508152602001600182018054600181600116156101000203166002900480601f01602080910402602001604051908101604052809291908181526020018280546001816001161561010002031660029004801561103d5780601f106110125761010080835404028352916020019161103d565b820191906000526020600020905b81548152906001019060200180831161102057829003601f168201915b505050505081526020016002820154815250508152602001600482016040518060800160405290816000820160009054906101000a900473ffffffffffffffffffffffffffffffffffffffff1673ffffffffffffffffffffffffffffffffffffffff1673ffffffffffffffffffffffffffffffffffffffff168152602001600182018054600181600116156101000203166002900480601f0160208091040260200160405190810160405280929190818152602001828054600181600116156101000203166002900480156111535780601f1061112857610100808354040283529160200191611153565b820191906000526020600020905b81548152906001019060200180831161113657829003601f168201915b50505050508152602001600282018054600181600116156101000203166002900480601f0160208091040260200160405190810160405280929190818152602001828054600181600116156101000203166002900480156111f55780601f106111ca576101008083540402835291602001916111f5565b820191906000526020600020905b8154815290600101906020018083116111d857829003601f168201915b50505050508152602001600382018054600181600116156101000203166002900480601f0160208091040260200160405190810160405280929190818152602001828054600181600116156101000203166002900480156112975780601f1061126c57610100808354040283529160200191611297565b820191906000526020600020905b81548152906001019060200180831161127a57829003601f168201915b50505050508152505081526020016008820154815260200160098201548152602001600a820160009054906101000a900460ff1660018111156112d657fe5b60018111156112e157fe5b8152602001600b82018054600181600116156101000203166002900480601f01602080910402602001604051908101604052809291908181526020018280546001816001161561010002031660029004801561137e5780601f106113535761010080835404028352916020019161137e565b820191906000526020600020905b81548152906001019060200180831161136157829003601f168201915b5050505050815250508152602001600e820160009054906101000a900460ff1660048111156113a957fe5b60048111156113b457fe5b815250509050919050565b600260009054906101000a900473ffffffffffffffffffffffffffffffffffffffff1681565b3373ffffffffffffffffffffffffffffffffffffffff16600260009054906101000a900473ffffffffffffffffffffffffffffffffffffffff1673ffffffffffffffffffffffffffffffffffffffff1614611475576040517f08c379a000000000000000000000000000000000000000000000000000000000815260040161146c90612d40565b60405180910390fd5b61147d612265565b60068760405161148d9190612c2d565b9081526020016040518091039020604051806060016040529081600082018054600181600116156101000203166002900480601f01602080910402602001604051908101604052809291908181526020018280546001816001161561010002031660029004801561153f5780601f106115145761010080835404028352916020019161153f565b820191906000526020600020905b81548152906001019060200180831161152257829003601f168201915b50505050508152602001600182018054600181600116156101000203166002900480601f0160208091040260200160405190810160405280929190818152602001828054600181600116156101000203166002900480156115e15780601f106115b6576101008083540402835291602001916115e1565b820191906000526020600020905b8154815290600101906020018083116115c457829003601f168201915b5050505050815260200160028201548152505090506115fe612286565b60405180608001604052808873ffffffffffffffffffffffffffffffffffffffff16815260200187815260200186815260200185815250905060016003540160038190555061164b612142565b6040518060e001604052806003548152602001848152602001838152602001607a8152602001607b81526020016000600181111561168557fe5b81526020018581525090508060076000836000015181526020019081526020016000206000820151816000015560208201518160010160008201518160000190805190602001906116d79291906121e5565b5060208201518160010190805190602001906116f49291906121e5565b5060408201518160020155505060408201518160040160008201518160000160006101000a81548173ffffffffffffffffffffffffffffffffffffffff021916908373ffffffffffffffffffffffffffffffffffffffff160217905550602082015181600101908051906020019061176d9291906121e5565b50604082015181600201908051906020019061178a9291906121e5565b5060608201518160030190805190602001906117a79291906121e5565b505050606082015181600801556080820151816009015560a082015181600a0160006101000a81548160ff021916908360018111156117e257fe5b021790555060c082015181600b0190805190602001906118039291906121e5565b509050508160056000846000015173ffffffffffffffffffffffffffffffffffffffff1673ffffffffffffffffffffffffffffffffffffffff16815260200190815260200160002060008201518160000160006101000a81548173ffffffffffffffffffffffffffffffffffffffff021916908373ffffffffffffffffffffffffffffffffffffffff16021790555060208201518160010190805190602001906118ae9291906121e5565b5060408201518160020190805190602001906118cb9291906121e5565b5060608201518160030190805190602001906118e89291906121e5565b50905050505050505050505050565b60018054600181600116156101000203166002900480601f01602080910402602001604051908101604052809291908181526020018280546001816001161561010002031660029004801561198d5780601f106119625761010080835404028352916020019161198d565b820191906000526020600020905b81548152906001019060200180831161197057829003601f168201915b505050505081565b3373ffffffffffffffffffffffffffffffffffffffff16600260009054906101000a900473ffffffffffffffffffffffffffffffffffffffff1673ffffffffffffffffffffffffffffffffffffffff1614611a25576040517f08c379a0000000000000000000000000000000000000000000000000000000008152600401611a1c90612d40565b60405180910390fd5b611a2d6122c4565b6040518060a001604052808781526020018673ffffffffffffffffffffffffffffffffffffffff16815260200185815260200184815260200183815250905080600987604051611a7d9190612c2d565b90815260200160405180910390206000820151816000019080519060200190611aa79291906121e5565b5060208201518160010160006101000a81548173ffffffffffffffffffffffffffffffffffffffff021916908373ffffffffffffffffffffffffffffffffffffffff1602179055506040820151816002019080519060200190611b0b9291906121e5565b506060820151816003019080519060200190611b289291906121e5565b506080820151816004019080519060200190611b459291906121e5565b50905050505050505050565b611b59612142565b600760008381526020019081526020016000206040518060e00160405290816000820154815260200160018201604051806060016040529081600082018054600181600116156101000203166002900480601f016020809104026020016040519081016040528092919081815260200182805460018160011615610100020316600290048015611c2a5780601f10611bff57610100808354040283529160200191611c2a565b820191906000526020600020905b815481529060010190602001808311611c0d57829003601f168201915b50505050508152602001600182018054600181600116156101000203166002900480601f016020809104026020016040519081016040528092919081815260200182805460018160011615610100020316600290048015611ccc5780601f10611ca157610100808354040283529160200191611ccc565b820191906000526020600020905b815481529060010190602001808311611caf57829003601f168201915b505050505081526020016002820154815250508152602001600482016040518060800160405290816000820160009054906101000a900473ffffffffffffffffffffffffffffffffffffffff1673ffffffffffffffffffffffffffffffffffffffff1673ffffffffffffffffffffffffffffffffffffffff168152602001600182018054600181600116156101000203166002900480601f016020809104026020016040519081016040528092919081815260200182805460018160011615610100020316600290048015611de25780601f10611db757610100808354040283529160200191611de2565b820191906000526020600020905b815481529060010190602001808311611dc557829003601f168201915b50505050508152602001600282018054600181600116156101000203166002900480601f016020809104026020016040519081016040528092919081815260200182805460018160011615610100020316600290048015611e845780601f10611e5957610100808354040283529160200191611e84565b820191906000526020600020905b815481529060010190602001808311611e6757829003601f168201915b50505050508152602001600382018054600181600116156101000203166002900480601f016020809104026020016040519081016040528092919081815260200182805460018160011615610100020316600290048015611f265780601f10611efb57610100808354040283529160200191611f26565b820191906000526020600020905b815481529060010190602001808311611f0957829003601f168201915b50505050508152505081526020016008820154815260200160098201548152602001600a820160009054906101000a900460ff166001811115611f6557fe5b6001811115611f7057fe5b8152602001600b82018054600181600116156101000203166002900480601f01602080910402602001604051908101604052809291908181526020018280546001816001161561010002031660029004801561200d5780601f10611fe25761010080835404028352916020019161200d565b820191906000526020600020905b815481529060010190602001808311611ff057829003601f168201915b5050505050815250509050919050565b3373ffffffffffffffffffffffffffffffffffffffff16600260009054906101000a900473ffffffffffffffffffffffffffffffffffffffff1673ffffffffffffffffffffffffffffffffffffffff16146120ad576040517f08c379a00000000000000000000000000000000000000000000000000000000081526004016120a490612d40565b60405180910390fd5b6120b5612265565b604051806060016040528085815260200184815260200183815250905080600682600001516040516120e79190612c16565b908152602001604051809103902060008201518160000190805190602001906121119291906121e5565b50602082015181600101908051906020019061212e9291906121e5565b506040820151816002015590505050505050565b6040518060e001604052806000815260200161215c612309565b815260200161216961232a565b815260200160008152602001600081526020016000600181111561218957fe5b8152602001606081525090565b604051806080016040528060008152602001600073ffffffffffffffffffffffffffffffffffffffff1681526020016121cd612368565b8152602001600060048111156121df57fe5b81525090565b828054600181600116156101000203166002900490600052602060002090601f016020900481019282601f1061222657805160ff1916838001178555612254565b82800160010185558215612254579182015b82811115612253578251825591602001919060010190612238565b5b50905061226191906123bc565b5090565b60405180606001604052806060815260200160608152602001600081525090565b6040518060800160405280600073ffffffffffffffffffffffffffffffffffffffff1681526020016060815260200160608152602001606081525090565b6040518060a0016040528060608152602001600073ffffffffffffffffffffffffffffffffffffffff1681526020016060815260200160608152602001606081525090565b60405180606001604052806060815260200160608152602001600081525090565b6040518060800160405280600073ffffffffffffffffffffffffffffffffffffffff1681526020016060815260200160608152602001606081525090565b6040518060e0016040528060008152602001612382612309565b815260200161238f61232a565b81526020016000815260200160008152602001600060018111156123af57fe5b8152602001606081525090565b6123de91905b808211156123da5760008160009055506001016123c2565b5090565b90565b6000813590506123f081612f5f565b92915050565b600082601f83011261240757600080fd5b813561241a61241582612dd1565b612da4565b9150808252602083016020830185838301111561243657600080fd5b612441838284612ef2565b50505092915050565b600082601f83011261245b57600080fd5b813561246e61246982612dfd565b612da4565b9150808252602083016020830185838301111561248a57600080fd5b612495838284612ef2565b50505092915050565b6000813590506124ad81612f76565b92915050565b6000602082840312156124c557600080fd5b60006124d3848285016123e1565b91505092915050565b6000602082840312156124ee57600080fd5b600082013567ffffffffffffffff81111561250857600080fd5b612514848285016123f6565b91505092915050565b600080600080600060a0868803121561253557600080fd5b600086013567ffffffffffffffff81111561254f57600080fd5b61255b8882890161244a565b955050602061256c888289016123e1565b945050604086013567ffffffffffffffff81111561258957600080fd5b6125958882890161244a565b935050606086013567ffffffffffffffff8111156125b257600080fd5b6125be8882890161244a565b925050608086013567ffffffffffffffff8111156125db57600080fd5b6125e78882890161244a565b9150509295509295909350565b60008060008060008060c0878903121561260d57600080fd5b600087013567ffffffffffffffff81111561262757600080fd5b61263389828a0161244a565b965050602061264489828a016123e1565b955050604087013567ffffffffffffffff81111561266157600080fd5b61266d89828a0161244a565b945050606087013567ffffffffffffffff81111561268a57600080fd5b61269689828a0161244a565b935050608087013567ffffffffffffffff8111156126b357600080fd5b6126bf89828a0161244a565b92505060a087013567ffffffffffffffff8111156126dc57600080fd5b6126e889828a0161244a565b9150509295509295509295565b60008060006060848603121561270a57600080fd5b600084013567ffffffffffffffff81111561272457600080fd5b6127308682870161244a565b935050602084013567ffffffffffffffff81111561274d57600080fd5b6127598682870161244a565b925050604061276a8682870161249e565b9150509250925092565b60006020828403121561278657600080fd5b60006127948482850161249e565b91505092915050565b6127a681612e6c565b82525050565b6127b581612e6c565b82525050565b6127c481612ece565b82525050565b6127d381612ee0565b82525050565b60006127e482612e34565b6127ee8185612e61565b93506127fe818560208601612f01565b80840191505092915050565b600061281582612e29565b61281f8185612e3f565b935061282f818560208601612f01565b61283881612f34565b840191505092915050565b600061284e82612e29565b6128588185612e50565b9350612868818560208601612f01565b61287181612f34565b840191505092915050565b600061288782612e29565b6128918185612e61565b93506128a1818560208601612f01565b80840191505092915050565b60006128ba603883612e50565b91507f4f6e6c79207468652061646d696e206f722077617272616e7479206f776e657260008301527f2063616e20706572666f726d207468697320616374696f6e00000000000000006020830152604082019050919050565b6000612920602283612e50565b91507f4f6e6c79206f776e65722063616e20706572666f726d2074686973206163746960008301527f6f6e0000000000000000000000000000000000000000000000000000000000006020830152604082019050919050565b60006080830160008301516129916000860182612bf8565b5060208301516129a4602086018261279d565b50604083015184820360408601526129bc8282612b4e565b91505060608301516129d160608601826127bb565b508091505092915050565b60006080830160008301516129f4600086018261279d565b5060208301518482036020860152612a0c828261280a565b91505060408301518482036040860152612a26828261280a565b91505060608301518482036060860152612a40828261280a565b9150508091505092915050565b60006060830160008301518482036000860152612a6a828261280a565b91505060208301518482036020860152612a84828261280a565b9150506040830151612a996040860182612bf8565b508091505092915050565b600060e083016000830151612abc6000860182612bf8565b5060208301518482036020860152612ad48282612a4d565b91505060408301518482036040860152612aee82826129dc565b9150506060830151612b036060860182612bf8565b506080830151612b166080860182612bf8565b5060a0830151612b2960a08601826127ca565b5060c083015184820360c0860152612b41828261280a565b9150508091505092915050565b600060e083016000830151612b666000860182612bf8565b5060208301518482036020860152612b7e8282612a4d565b91505060408301518482036040860152612b9882826129dc565b9150506060830151612bad6060860182612bf8565b506080830151612bc06080860182612bf8565b5060a0830151612bd360a08601826127ca565b5060c083015184820360c0860152612beb828261280a565b9150508091505092915050565b612c0181612ec4565b82525050565b612c1081612ec4565b82525050565b6000612c22828461287c565b915081905092915050565b6000612c3982846127d9565b915081905092915050565b6000602082019050612c5960008301846127ac565b92915050565b6000608082019050612c7460008301876127ac565b8181036020830152612c868186612843565b90508181036040830152612c9a8185612843565b90508181036060830152612cae8184612843565b905095945050505050565b60006020820190508181036000830152612cd38184612843565b905092915050565b60006060820190508181036000830152612cf58186612843565b90508181036020830152612d098185612843565b9050612d186040830184612c07565b949350505050565b60006020820190508181036000830152612d39816128ad565b9050919050565b60006020820190508181036000830152612d5981612913565b9050919050565b60006020820190508181036000830152612d7a8184612979565b905092915050565b60006020820190508181036000830152612d9c8184612aa4565b905092915050565b6000604051905081810181811067ffffffffffffffff82111715612dc757600080fd5b8060405250919050565b600067ffffffffffffffff821115612de857600080fd5b601f19601f8301169050602081019050919050565b600067ffffffffffffffff821115612e1457600080fd5b601f19601f8301169050602081019050919050565b600081519050919050565b600081519050919050565b600082825260208201905092915050565b600082825260208201905092915050565b600081905092915050565b6000612e7782612ea4565b9050919050565b6000819050612e8c82612f45565b919050565b6000819050612e9f82612f52565b919050565b600073ffffffffffffffffffffffffffffffffffffffff82169050919050565b6000819050919050565b6000612ed982612e7e565b9050919050565b6000612eeb82612e91565b9050919050565b82818337600083830152505050565b60005b83811015612f1f578082015181840152602081019050612f04565b83811115612f2e576000848401525b50505050565b6000601f19601f8301169050919050565b60058110612f4f57fe5b50565b60028110612f5c57fe5b50565b612f6881612e6c565b8114612f7357600080fd5b50565b612f7f81612ec4565b8114612f8a57600080fd5b5056fea365627a7a72315820f8f1f56a9883e81314226e7cd21b22e62991d0fe76d52aaf2bc57d9b539f4fb36c6578706572696d656e74616cf564736f6c63430005100040",
  "source": "// SPDX-License-Identifier: MIT\npragma solidity >=0.4.22 <0.8.0;\npragma experimental ABIEncoderV2;\n\n/**\n * EWarranty management in a blockchain\n */\ncontract EWarranty {\n    string public organization;\n    string public domain;\n    address public owner;\n    uint256 warrantiesCount = 0;\n    uint256 claimsCount = 0;\n\n    enum WARRANTY_STATUS {ACTIVE, INACTIVE}\n\n    enum CLAIM_STATUS {PENDING, INPROGRESS, SETTLED, DISPUTED, CANCELLED}\n\n    struct Customer {\n        address account;\n        string location;\n        string city;\n        string country;\n    }\n\n    struct ServiceCenter {\n        string code;\n        address incharged;\n        string location;\n        string city;\n        string country;\n    }\n\n    struct Product {\n        string sku;\n        string name;\n        uint256 price;\n    }\n\n    struct Warranty {\n        uint256 id;\n        Product product;\n        Customer customer;\n        uint256 start;\n        uint256 expiry;\n        WARRANTY_STATUS status;\n        string terms;\n    }\n\n    struct Claim {\n        uint256 id;\n        address reportedBy;\n        Warranty warranty;\n        CLAIM_STATUS status;\n    }\n\n    mapping(address => Customer) public customers;\n    mapping(string => Product) public products;\n    mapping(uint256 => Warranty) warranties;\n    mapping(uint256 => Claim) claims;\n    mapping(string => ServiceCenter) serviceCenters;\n\n    modifier isOwner {\n        require(owner == msg.sender, \"Only owner can perform this action\");\n        _;\n    }\n\n    constructor(string memory _organization, string memory _domain) public {\n        require(bytes(_organization).length > 0, \"_organization is required\");\n        require(bytes(_domain).length > 0, \"_domain is required\");\n\n        organization = _organization;\n        domain = _domain;\n        owner = msg.sender;\n    }\n\n    function addProduct(\n        string memory _sku,\n        string memory _name,\n        uint256 _price\n    ) public isOwner {\n        Product memory product = Product({\n            sku: _sku,\n            name: _name,\n            price: _price\n        });\n        products[product.sku] = product;\n    }\n\n    function registerServiceCenter(\n        string memory _code,\n        address _incharged,\n        string memory _location,\n        string memory _city,\n        string memory _country\n    ) public isOwner {\n        ServiceCenter memory serviceCenter = ServiceCenter({\n            code: _code,\n            incharged: _incharged,\n            location: _location,\n            city: _city,\n            country: _country\n        });\n        serviceCenters[_code] = serviceCenter;\n    }\n\n    function registerWarranty(\n        string memory _productSku,\n        address _customerAddress,\n        string memory _location,\n        string memory _city,\n        string memory _country,\n        string memory _terms\n    ) public isOwner {\n        Product memory product = products[_productSku];\n        Customer memory customer = Customer({\n            account: _customerAddress,\n            city: _city,\n            location: _location,\n            country: _country\n        });\n\n        warrantiesCount = warrantiesCount + 1;\n        Warranty memory warranty = Warranty({\n            id: warrantiesCount,\n            product: product,\n            customer: customer,\n            start: 122,\n            expiry: 123,\n            terms: _terms,\n            status: WARRANTY_STATUS.ACTIVE\n        });\n        warranties[warranty.id] = warranty;\n        customers[customer.account] = customer;\n    }\n\n    function getWarranty(uint256 id) public view returns (Warranty memory) {\n        return warranties[id];\n    }\n\n    function registerClaim(uint256 _warrantyID) public {\n        Warranty memory warranty = warranties[_warrantyID];\n        require(\n            (warranty.customer.account == msg.sender || owner == msg.sender),\n            \"Only the admin or warranty owner can perform this action\"\n        );\n        claimsCount = claimsCount + 1;\n        Claim memory claim = Claim({\n            id: claimsCount,\n            warranty: warranty,\n            reportedBy: msg.sender,\n            status: CLAIM_STATUS.PENDING\n        });\n        claims[claimsCount] = claim;\n    }\n\n    function getClaim(uint256 id) public view returns (Claim memory) {\n        return claims[id];\n    }\n}\n",
  "sourcePath": "/home/felix/Projects/freelance/upwork/ewarrant/contracts/EWarranty.sol",
  "compiler": {
    "name": "solc",
    "version": "0.5.16+commit.9c3226ce.Emscripten.clang"
  },
  "schemaVersion": "3.3.2",
  "updatedAt": "2020-11-11T09:27:59.436Z",
  "networkType": "ethereum",
  "devdoc": {
    "methods": {}
  },
  "userdoc": {
    "methods": {},
    "notice": "EWarranty management in a blockchain"
  }
}